{
  "contractName": "ContractsStorage",
  "abi": [
    {
      "constant": true,
      "inputs": [],
      "name": "signer1",
      "outputs": [
        {
          "name": "",
          "type": "address"
        }
      ],
      "payable": false,
      "stateMutability": "view",
      "type": "function"
    },
    {
      "constant": true,
      "inputs": [],
      "name": "signer2",
      "outputs": [
        {
          "name": "",
          "type": "address"
        }
      ],
      "payable": false,
      "stateMutability": "view",
      "type": "function"
    },
    {
      "constant": true,
      "inputs": [],
      "name": "owner",
      "outputs": [
        {
          "name": "",
          "type": "address"
        }
      ],
      "payable": false,
      "stateMutability": "view",
      "type": "function"
    },
    {
      "constant": false,
      "inputs": [
        {
          "name": "newOwner",
          "type": "address"
        }
      ],
      "name": "transferOwnership",
      "outputs": [],
      "payable": false,
      "stateMutability": "nonpayable",
      "type": "function"
    },
    {
      "inputs": [
        {
          "name": "_signer1",
          "type": "address"
        },
        {
          "name": "_signer2",
          "type": "address"
        }
      ],
      "payable": false,
      "stateMutability": "nonpayable",
      "type": "constructor"
    },
    {
      "anonymous": false,
      "inputs": [
        {
          "indexed": true,
          "name": "previousOwner",
          "type": "address"
        },
        {
          "indexed": true,
          "name": "newOwner",
          "type": "address"
        }
      ],
      "name": "OwnershipTransferred",
      "type": "event"
    },
    {
      "constant": false,
      "inputs": [
        {
          "name": "_unique",
          "type": "string"
        },
        {
          "name": "_title",
          "type": "string"
        },
        {
          "name": "_content",
          "type": "string"
        }
      ],
      "name": "addContract",
      "outputs": [],
      "payable": false,
      "stateMutability": "nonpayable",
      "type": "function"
    },
    {
      "constant": false,
      "inputs": [
        {
          "name": "_unique",
          "type": "string"
        }
      ],
      "name": "signContract",
      "outputs": [],
      "payable": false,
      "stateMutability": "nonpayable",
      "type": "function"
    },
    {
      "constant": true,
      "inputs": [
        {
          "name": "_unique",
          "type": "string"
        }
      ],
      "name": "getContract",
      "outputs": [
        {
          "name": "",
          "type": "string"
        },
        {
          "name": "",
          "type": "string"
        },
        {
          "name": "",
          "type": "address"
        },
        {
          "name": "",
          "type": "uint256"
        },
        {
          "name": "",
          "type": "address"
        },
        {
          "name": "",
          "type": "uint256"
        },
        {
          "name": "",
          "type": "bool"
        },
        {
          "name": "",
          "type": "uint256"
        }
      ],
      "payable": false,
      "stateMutability": "view",
      "type": "function"
    }
  ],
  "bytecode": "0x6060604052341561000f57600080fd5b604051604080610f6d83398101604052808051906020019091908051906020019091905050336000806101000a81548173ffffffffffffffffffffffffffffffffffffffff021916908373ffffffffffffffffffffffffffffffffffffffff16021790555081600160006101000a81548173ffffffffffffffffffffffffffffffffffffffff021916908373ffffffffffffffffffffffffffffffffffffffff16021790555080600260006101000a81548173ffffffffffffffffffffffffffffffffffffffff021916908373ffffffffffffffffffffffffffffffffffffffff1602179055505050610e66806101076000396000f300606060405260043610610083576000357c0100000000000000000000000000000000000000000000000000000000900463ffffffff168063341072821461008857806335817773146100dd57806338c0ac5f146102a55780636c2bc72d146102fa5780638da5cb5b146103dd578063c63576e414610432578063f2fde38b1461048f575b600080fd5b341561009357600080fd5b61009b6104c8565b604051808273ffffffffffffffffffffffffffffffffffffffff1673ffffffffffffffffffffffffffffffffffffffff16815260200191505060405180910390f35b34156100e857600080fd5b610138600480803590602001908201803590602001908080601f016020809104026020016040519081016040528093929190818152602001838380828437820191505050505050919050506104ee565b6040518080602001806020018973ffffffffffffffffffffffffffffffffffffffff1673ffffffffffffffffffffffffffffffffffffffff1681526020018881526020018773ffffffffffffffffffffffffffffffffffffffff1673ffffffffffffffffffffffffffffffffffffffff1681526020018681526020018515151515815260200184815260200183810383528b818151815260200191508051906020019080838360005b838110156101fc5780820151818401526020810190506101e1565b50505050905090810190601f1680156102295780820380516001836020036101000a031916815260200191505b5083810382528a818151815260200191508051906020019080838360005b83811015610262578082015181840152602081019050610247565b50505050905090810190601f16801561028f5780820380516001836020036101000a031916815260200191505b509a505050505050505050505060405180910390f35b34156102b057600080fd5b6102b8610739565b604051808273ffffffffffffffffffffffffffffffffffffffff1673ffffffffffffffffffffffffffffffffffffffff16815260200191505060405180910390f35b341561030557600080fd5b6103db600480803590602001908201803590602001908080601f0160208091040260200160405190810160405280939291908181526020018383808284378201915050505050509190803590602001908201803590602001908080601f0160208091040260200160405190810160405280939291908181526020018383808284378201915050505050509190803590602001908201803590602001908080601f0160208091040260200160405190810160405280939291908181526020018383808284378201915050505050509190505061075f565b005b34156103e857600080fd5b6103f0610955565b604051808273ffffffffffffffffffffffffffffffffffffffff1673ffffffffffffffffffffffffffffffffffffffff16815260200191505060405180910390f35b341561043d57600080fd5b61048d600480803590602001908201803590602001908080601f0160208091040260200160405190810160405280939291908181526020018383808284378201915050505050509190505061097a565b005b341561049a57600080fd5b6104c6600480803573ffffffffffffffffffffffffffffffffffffffff16906020019091905050610c2c565b005b600160009054906101000a900473ffffffffffffffffffffffffffffffffffffffff1681565b6104f6610d81565b6104fe610d81565b600080600080600080600060038a6040518082805190602001908083835b602083101515610541578051825260208201915060208101905060208303925061051c565b6001836020036101000a038019825116818451168082178552505050505050905001915050908152602001604051809103902090508060000181600101600160009054906101000a900473ffffffffffffffffffffffffffffffffffffffff168360020154600260009054906101000a900473ffffffffffffffffffffffffffffffffffffffff1685600301548660040160009054906101000a900460ff168760050154878054600181600116156101000203166002900480601f01602080910402602001604051908101604052809291908181526020018280546001816001161561010002031660029004801561067a5780601f1061064f5761010080835404028352916020019161067a565b820191906000526020600020905b81548152906001019060200180831161065d57829003601f168201915b50505050509750868054600181600116156101000203166002900480601f0160208091040260200160405190810160405280929190818152602001828054600181600116156101000203166002900480156107165780601f106106eb57610100808354040283529160200191610716565b820191906000526020600020905b8154815290600101906020018083116106f957829003601f168201915b505050505096509850985098509850985098509850985050919395975091939597565b600260009054906101000a900473ffffffffffffffffffffffffffffffffffffffff1681565b6000809054906101000a900473ffffffffffffffffffffffffffffffffffffffff1673ffffffffffffffffffffffffffffffffffffffff163373ffffffffffffffffffffffffffffffffffffffff161415156107ba57600080fd5b60006003846040518082805190602001908083835b6020831015156107f457805182526020820191506020810190506020830392506107cf565b6001836020036101000a03801982511681845116808217855250505050505090500191505090815260200160405180910390206005015414151561083757600080fd5b60c0604051908101604052808381526020018281526020016000815260200160008152602001600015158152602001438152506003846040518082805190602001908083835b6020831015156108a2578051825260208201915060208101905060208303925061087d565b6001836020036101000a038019825116818451168082178552505050505050905001915050908152602001604051809103902060008201518160000190805190602001906108f1929190610d95565b50602082015181600101908051906020019061090e929190610d95565b50604082015181600201556060820151816003015560808201518160040160006101000a81548160ff02191690831515021790555060a08201518160050155905050505050565b6000809054906101000a900473ffffffffffffffffffffffffffffffffffffffff1681565b6000600160009054906101000a900473ffffffffffffffffffffffffffffffffffffffff1673ffffffffffffffffffffffffffffffffffffffff163373ffffffffffffffffffffffffffffffffffffffff161480610a255750600260009054906101000a900473ffffffffffffffffffffffffffffffffffffffff1673ffffffffffffffffffffffffffffffffffffffff163373ffffffffffffffffffffffffffffffffffffffff16145b1515610a3057600080fd5b6003826040518082805190602001908083835b602083101515610a685780518252602082019150602081019050602083039250610a43565b6001836020036101000a038019825116818451168082178552505050505050905001915050908152602001604051809103902090506000816005015414151515610ab157600080fd5b600015158160040160009054906101000a900460ff161515141515610ad557600080fd5b3373ffffffffffffffffffffffffffffffffffffffff16600160009054906101000a900473ffffffffffffffffffffffffffffffffffffffff1673ffffffffffffffffffffffffffffffffffffffff161415610b775760008160020154141515610b3e57600080fd5b438160020181905550600081600301541115610b725760018160040160006101000a81548160ff0219169083151502179055505b610c28565b3373ffffffffffffffffffffffffffffffffffffffff16600260009054906101000a900473ffffffffffffffffffffffffffffffffffffffff1673ffffffffffffffffffffffffffffffffffffffff161415610c195760008160030154141515610be057600080fd5b438160030181905550600081600301541115610c145760018160040160006101000a81548160ff0219169083151502179055505b610c27565b60001515610c2657600080fd5b5b5b5050565b6000809054906101000a900473ffffffffffffffffffffffffffffffffffffffff1673ffffffffffffffffffffffffffffffffffffffff163373ffffffffffffffffffffffffffffffffffffffff16141515610c8757600080fd5b600073ffffffffffffffffffffffffffffffffffffffff168173ffffffffffffffffffffffffffffffffffffffff1614151515610cc357600080fd5b8073ffffffffffffffffffffffffffffffffffffffff166000809054906101000a900473ffffffffffffffffffffffffffffffffffffffff1673ffffffffffffffffffffffffffffffffffffffff167f8be0079c531659141344cd1fd0a4f28419497f9722a3daafe3b4186f6b6457e060405160405180910390a3806000806101000a81548173ffffffffffffffffffffffffffffffffffffffff021916908373ffffffffffffffffffffffffffffffffffffffff16021790555050565b602060405190810160405280600081525090565b828054600181600116156101000203166002900490600052602060002090601f016020900481019282601f10610dd657805160ff1916838001178555610e04565b82800160010185558215610e04579182015b82811115610e03578251825591602001919060010190610de8565b5b509050610e119190610e15565b5090565b610e3791905b80821115610e33576000816000905550600101610e1b565b5090565b905600a165627a7a72305820c9ebf3a18ec7a112b5f047675e0da66587bb9d93c611929441146dcdd35a6f8b0029",
  "source": "pragma solidity ^0.4.18;\n\n\nimport '../node_modules/zeppelin-solidity/contracts/ownership/Ownable.sol';\n\n\ncontract ContractsStorage is Ownable {\n    struct Contract {\n        string title;\n        string content;\n\n        uint sign_block_count1;\n\n        uint sign_block_count2;\n\n        bool is_signed;\n\n        uint block_count;\n    }\n\n    address public signer1;\n    address public signer2;\n\n    mapping (string => Contract) contracts;\n\n    modifier onlySigners() {\n        require((msg.sender == signer1) || (msg.sender == signer2));\n        _;\n    }\n\n    function ContractsStorage(address _signer1, address _signer2) public {\n        signer1 = _signer1;\n        signer2 = _signer2;\n    }\n\n    function addContract(string _unique, string _title, string _content) onlyOwner public {\n        require(contracts[_unique].block_count == 0);\n\n        contracts[_unique] = Contract({\n            title: _title,\n            content: _content,\n\n            sign_block_count1: 0,\n            sign_block_count2: 0,\n            is_signed: false,\n\n            block_count: block.number\n        });\n    }\n\n    function signContract(string _unique) onlySigners public {\n        Contract storage c = contracts[_unique];\n\n        require(c.block_count != 0);\n        require(c.is_signed == false);\n\n        if (signer1 == msg.sender) {\n            require(c.sign_block_count1 == 0);\n            c.sign_block_count1 = block.number;\n            if (c.sign_block_count2 > 0) {\n                c.is_signed = true;\n            }\n        } else if (signer2 == msg.sender) {\n            require(c.sign_block_count2 == 0);\n            c.sign_block_count2 = block.number;\n            if (c.sign_block_count2 > 0) {\n                c.is_signed = true;\n            }\n        } else {\n            require(false);\n        }\n    }\n\n    function getContract(string _unique) public constant returns(string, string, address, uint, address, uint, bool, uint) {\n        Contract storage c = contracts[_unique];\n        return (c.title, c.content,\n                signer1, c.sign_block_count1,\n                signer2, c.sign_block_count2,\n                c.is_signed, c.block_count);\n    }\n}\n",
  "sourcePath": "/Users/pomeschenkoanton/projects/oil/contracts/ContractsStorage.sol",
  "compiler": {
    "name": "solc",
    "version": "0.4.19+commit.c4cbbb05.Emscripten.clang"
  },
  "schemaVersion": "1.0.1",
  "updatedAt": "2018-02-15T13:26:03.379Z"
}